{
  "contractName": "DeliveryDroneControl",
  "abi": [
    {
      "constant": true,
      "inputs": [],
      "name": "status",
      "outputs": [
        {
          "name": "",
          "type": "uint8"
        }
      ],
      "payable": false,
      "stateMutability": "view",
      "type": "function"
    },
    {
      "constant": true,
      "inputs": [
        {
          "name": "",
          "type": "uint256"
        }
      ],
      "name": "requestQueue",
      "outputs": [
        {
          "name": "from",
          "type": "string"
        },
        {
          "name": "to",
          "type": "string"
        }
      ],
      "payable": false,
      "stateMutability": "view",
      "type": "function"
    },
    {
      "inputs": [
        {
          "name": "_drone",
          "type": "address"
        }
      ],
      "payable": false,
      "stateMutability": "nonpayable",
      "type": "constructor"
    },
    {
      "anonymous": false,
      "inputs": [
        {
          "indexed": false,
          "name": "from",
          "type": "string"
        },
        {
          "indexed": false,
          "name": "to",
          "type": "string"
        }
      ],
      "name": "DeliveryRequested",
      "type": "event"
    },
    {
      "constant": false,
      "inputs": [
        {
          "name": "from",
          "type": "string"
        },
        {
          "name": "to",
          "type": "string"
        }
      ],
      "name": "requestDelivery",
      "outputs": [],
      "payable": false,
      "stateMutability": "nonpayable",
      "type": "function"
    },
    {
      "constant": false,
      "inputs": [],
      "name": "getNextLocation",
      "outputs": [
        {
          "name": "",
          "type": "string"
        }
      ],
      "payable": false,
      "stateMutability": "nonpayable",
      "type": "function"
    }
  ],
  "bytecode": "0x608060405234801561001057600080fd5b50604051602080610a3a83398101806040528101908080519060200190929190505050806000806101000a81548173ffffffffffffffffffffffffffffffffffffffff021916908373ffffffffffffffffffffffffffffffffffffffff160217905550506109b7806100836000396000f300608060405260043610610062576000357c0100000000000000000000000000000000000000000000000000000000900463ffffffff168063200d2ed2146100675780634cbf4348146100a0578063bccec8ac146101b2578063dabd7e5414610261575b600080fd5b34801561007357600080fd5b5061007c6102f1565b6040518082600281111561008c57fe5b60ff16815260200191505060405180910390f35b3480156100ac57600080fd5b506100cb60048036038101908080359060200190929190505050610304565b604051808060200180602001838103835285818151815260200191508051906020019080838360005b8381101561010f5780820151818401526020810190506100f4565b50505050905090810190601f16801561013c5780820380516001836020036101000a031916815260200191505b50838103825284818151815260200191508051906020019080838360005b8381101561017557808201518184015260208101905061015a565b50505050905090810190601f1680156101a25780820380516001836020036101000a031916815260200191505b5094505050505060405180910390f35b3480156101be57600080fd5b5061025f600480360381019080803590602001908201803590602001908080601f0160208091040260200160405190810160405280939291908181526020018383808284378201915050505050509192919290803590602001908201803590602001908080601f0160208091040260200160405190810160405280939291908181526020018383808284378201915050505050509192919290505050610467565b005b34801561026d57600080fd5b506102766105fb565b6040518080602001828103825283818151815260200191508051906020019080838360005b838110156102b657808201518184015260208101905061029b565b50505050905090810190601f1680156102e35780820380516001836020036101000a031916815260200191505b509250505060405180910390f35b600060149054906101000a900460ff1681565b60018181548110151561031357fe5b9060005260206000209060020201600091509050806000018054600181600116156101000203166002900480601f0160208091040260200160405190810160405280929190818152602001828054600181600116156101000203166002900480156103bf5780601f10610394576101008083540402835291602001916103bf565b820191906000526020600020905b8154815290600101906020018083116103a257829003601f168201915b505050505090806001018054600181600116156101000203166002900480601f01602080910402602001604051908101604052809291908181526020018280546001816001161561010002031660029004801561045d5780601f106104325761010080835404028352916020019161045d565b820191906000526020600020905b81548152906001019060200180831161044057829003601f168201915b5050505050905082565b60006001905060408051908101604052808481526020018381525081828054809190600101610496919061082d565b8154811015156104a257fe5b906000526020600020906002020160008201518160000190805190602001906104cc92919061085f565b5060208201518160010190805190602001906104e992919061085f565b509050507ff7a84dcb2223acbd7ed362e5addd5c5c1f2532d07c6481a29f2bc9317f3383b28383604051808060200180602001838103835285818151815260200191508051906020019080838360005b83811015610554578082015181840152602081019050610539565b50505050905090810190601f1680156105815780820380516001836020036101000a031916815260200191505b50838103825284818151815260200191508051906020019080838360005b838110156105ba57808201518184015260208101905061059f565b50505050905090810190601f1680156105e75780820380516001836020036101000a031916815260200191505b5094505050505060405180910390a1505050565b60606000809054906101000a900473ffffffffffffffffffffffffffffffffffffffff1673ffffffffffffffffffffffffffffffffffffffff163373ffffffffffffffffffffffffffffffffffffffff1614151561065857600080fd5b6000600180549050141561067e576020604051908101604052806000815250905061082a565b6001600281111561068b57fe5b600060149054906101000a900460ff1660028111156106a657fe5b141561076d57600160008154811015156106bc57fe5b90600052602060002090600202016001018054600181600116156101000203166002900480601f0160208091040260200160405190810160405280929190818152602001828054600181600116156101000203166002900480156107615780601f1061073657610100808354040283529160200191610761565b820191906000526020600020905b81548152906001019060200180831161074457829003601f168201915b5050505050905061082a565b6001600081548110151561077d57fe5b90600052602060002090600202016000018054600181600116156101000203166002900480601f0160208091040260200160405190810160405280929190818152602001828054600181600116156101000203166002900480156108225780601f106107f757610100808354040283529160200191610822565b820191906000526020600020905b81548152906001019060200180831161080557829003601f168201915b505050505090505b90565b81548183558181111561085a5760020281600202836000526020600020918201910161085991906108df565b5b505050565b828054600181600116156101000203166002900490600052602060002090601f016020900481019282601f106108a057805160ff19168380011785556108ce565b828001600101855582156108ce579182015b828111156108cd5782518255916020019190600101906108b2565b5b5090506108db919061091e565b5090565b61091b91905b8082111561091757600080820160006108fe9190610943565b60018201600061090e9190610943565b506002016108e5565b5090565b90565b61094091905b8082111561093c576000816000905550600101610924565b5090565b90565b50805460018160011615610100020316600290046000825580601f106109695750610988565b601f016020900490600052602060002090810190610987919061091e565b5b505600a165627a7a72305820ed66f56c00951ec5138d99b8768c13df9240fbde526c627569a5afa6adcdae2f0029",
  "source": "pragma solidity ^0.4.23;\r\n\r\ncontract DeliveryDroneControl {\r\n    /// @dev account of drone itself\r\n    address drone;\r\n    Status public status;\r\n    Delivery[] public requestQueue;\r\n\r\n    struct Delivery { \r\n        string from; \r\n        string to;\r\n    }\r\n\r\n    enum Status { Idle, Delivering, ToNextDelivery }\r\n    \r\n    /**\r\n     * event\r\n     */\r\n    event DeliveryRequested(string from, string to);\r\n\r\n    /**\r\n     * modifier\r\n     */\r\n    modifier onlyCalledByDrone() {\r\n        require(msg.sender == drone);\r\n        _;\r\n    }\r\n\r\n     /// @dev constructor, stores the address of the drone\r\n    function DeliveryDroneControl(address _drone) {\r\n         drone = _drone;\r\n    }\r\n\r\n     /// @notice request drone delivery from `from` to `to`\r\n    function requestDelivery(\r\n        string from, \r\n        string to) \r\n    {\r\n         /// construct the struct 'Delivery' and assign it to storage.\r\n         var queue = requestQueue;\r\n         queue[queue.length++] = Delivery(from, to);\r\n         emit DeliveryRequested(from , to);\r\n    }\r\n\r\n    /**\r\n     * @dev called by the drone to get the next location to fly to\r\n     */\r\n    function getNextLocation() onlyCalledByDrone returns (string) {\r\n        if (requestQueue.length == 0 ) return \"\";\r\n        // @todo this is not actually a queue\r\n        if(status == Status.Delivering) \r\n            return requestQueue[0].to;\r\n        else\r\n            return requestQueue[0].from;\r\n    }\r\n\r\n}",
  "sourcePath": "D:\\code\\blockchain\\truffle\\greeter\\contracts\\DeliveryDroneControl.sol",
  "compiler": {
    "name": "solc",
    "version": "0.4.24+commit.e67f0147.Emscripten.clang"
  },
  "schemaVersion": "2.0.1",
  "updatedAt": "2018-08-15T14:43:27.599Z"
}