{
  "contractName": "DeliveryDroneControl",
  "abi": [
    {
      "constant": true,
      "inputs": [],
      "name": "status",
      "outputs": [
        {
          "name": "",
          "type": "uint8"
        }
      ],
      "payable": false,
      "stateMutability": "view",
      "type": "function"
    },
    {
      "constant": true,
      "inputs": [
        {
          "name": "",
          "type": "uint256"
        }
      ],
      "name": "requestQueue",
      "outputs": [
        {
          "name": "from",
          "type": "string"
        },
        {
          "name": "to",
          "type": "string"
        }
      ],
      "payable": false,
      "stateMutability": "view",
      "type": "function"
    },
    {
      "inputs": [
        {
          "name": "_drone",
          "type": "address"
        }
      ],
      "payable": false,
      "stateMutability": "nonpayable",
      "type": "constructor"
    },
    {
      "anonymous": false,
      "inputs": [
        {
          "indexed": false,
          "name": "from",
          "type": "string"
        },
        {
          "indexed": false,
          "name": "to",
          "type": "string"
        }
      ],
      "name": "DeliveryRequested",
      "type": "event"
    },
    {
      "constant": false,
      "inputs": [
        {
          "name": "from",
          "type": "string"
        },
        {
          "name": "to",
          "type": "string"
        }
      ],
      "name": "requestDelivery",
      "outputs": [],
      "payable": false,
      "stateMutability": "nonpayable",
      "type": "function"
    },
    {
      "constant": false,
      "inputs": [],
      "name": "getNextLocation",
      "outputs": [
        {
          "name": "",
          "type": "string"
        }
      ],
      "payable": false,
      "stateMutability": "nonpayable",
      "type": "function"
    },
    {
      "constant": false,
      "inputs": [],
      "name": "delivered",
      "outputs": [],
      "payable": false,
      "stateMutability": "nonpayable",
      "type": "function"
    }
  ],
  "bytecode": "0x608060405234801561001057600080fd5b50604051602080610ab983398101806040528101908080519060200190929190505050806000806101000a81548173ffffffffffffffffffffffffffffffffffffffff021916908373ffffffffffffffffffffffffffffffffffffffff16021790555050610a36806100836000396000f30060806040526004361061006d576000357c0100000000000000000000000000000000000000000000000000000000900463ffffffff168063200d2ed2146100725780634cbf4348146100ab578063bbdfbfba146101bd578063bccec8ac146101d4578063dabd7e5414610283575b600080fd5b34801561007e57600080fd5b50610087610313565b6040518082600281111561009757fe5b60ff16815260200191505060405180910390f35b3480156100b757600080fd5b506100d660048036038101908080359060200190929190505050610326565b604051808060200180602001838103835285818151815260200191508051906020019080838360005b8381101561011a5780820151818401526020810190506100ff565b50505050905090810190601f1680156101475780820380516001836020036101000a031916815260200191505b50838103825284818151815260200191508051906020019080838360005b83811015610180578082015181840152602081019050610165565b50505050905090810190601f1680156101ad5780820380516001836020036101000a031916815260200191505b5094505050505060405180910390f35b3480156101c957600080fd5b506101d2610489565b005b3480156101e057600080fd5b50610281600480360381019080803590602001908201803590602001908080601f0160208091040260200160405190810160405280939291908181526020018383808284378201915050505050509192919290803590602001908201803590602001908080601f01602080910402602001604051908101604052809392919081815260200183838082843782019150505050505091929192905050506104e6565b005b34801561028f57600080fd5b5061029861067a565b6040518080602001828103825283818151815260200191508051906020019080838360005b838110156102d85780820151818401526020810190506102bd565b50505050905090810190601f1680156103055780820380516001836020036101000a031916815260200191505b509250505060405180910390f35b600060149054906101000a900460ff1681565b60018181548110151561033557fe5b9060005260206000209060020201600091509050806000018054600181600116156101000203166002900480601f0160208091040260200160405190810160405280929190818152602001828054600181600116156101000203166002900480156103e15780601f106103b6576101008083540402835291602001916103e1565b820191906000526020600020905b8154815290600101906020018083116103c457829003601f168201915b505050505090806001018054600181600116156101000203166002900480601f01602080910402602001604051908101604052809291908181526020018280546001816001161561010002031660029004801561047f5780601f106104545761010080835404028352916020019161047f565b820191906000526020600020905b81548152906001019060200180831161046257829003601f168201915b5050505050905082565b6000809054906101000a900473ffffffffffffffffffffffffffffffffffffffff1673ffffffffffffffffffffffffffffffffffffffff163373ffffffffffffffffffffffffffffffffffffffff161415156104e457600080fd5b565b6000600190506040805190810160405280848152602001838152508182805480919060010161051591906108ac565b81548110151561052157fe5b9060005260206000209060020201600082015181600001908051906020019061054b9291906108de565b5060208201518160010190805190602001906105689291906108de565b509050507ff7a84dcb2223acbd7ed362e5addd5c5c1f2532d07c6481a29f2bc9317f3383b28383604051808060200180602001838103835285818151815260200191508051906020019080838360005b838110156105d35780820151818401526020810190506105b8565b50505050905090810190601f1680156106005780820380516001836020036101000a031916815260200191505b50838103825284818151815260200191508051906020019080838360005b8381101561063957808201518184015260208101905061061e565b50505050905090810190601f1680156106665780820380516001836020036101000a031916815260200191505b5094505050505060405180910390a1505050565b60606000809054906101000a900473ffffffffffffffffffffffffffffffffffffffff1673ffffffffffffffffffffffffffffffffffffffff163373ffffffffffffffffffffffffffffffffffffffff161415156106d757600080fd5b600060018054905014156106fd57602060405190810160405280600081525090506108a9565b6001600281111561070a57fe5b600060149054906101000a900460ff16600281111561072557fe5b14156107ec576001600081548110151561073b57fe5b90600052602060002090600202016001018054600181600116156101000203166002900480601f0160208091040260200160405190810160405280929190818152602001828054600181600116156101000203166002900480156107e05780601f106107b5576101008083540402835291602001916107e0565b820191906000526020600020905b8154815290600101906020018083116107c357829003601f168201915b505050505090506108a9565b600160008154811015156107fc57fe5b90600052602060002090600202016000018054600181600116156101000203166002900480601f0160208091040260200160405190810160405280929190818152602001828054600181600116156101000203166002900480156108a15780601f10610876576101008083540402835291602001916108a1565b820191906000526020600020905b81548152906001019060200180831161088457829003601f168201915b505050505090505b90565b8154818355818111156108d9576002028160020283600052602060002091820191016108d8919061095e565b5b505050565b828054600181600116156101000203166002900490600052602060002090601f016020900481019282601f1061091f57805160ff191683800117855561094d565b8280016001018555821561094d579182015b8281111561094c578251825591602001919060010190610931565b5b50905061095a919061099d565b5090565b61099a91905b80821115610996576000808201600061097d91906109c2565b60018201600061098d91906109c2565b50600201610964565b5090565b90565b6109bf91905b808211156109bb5760008160009055506001016109a3565b5090565b90565b50805460018160011615610100020316600290046000825580601f106109e85750610a07565b601f016020900490600052602060002090810190610a06919061099d565b5b505600a165627a7a7230582000d44f5a3d986a458ab0f272fcc7f89159103c6985f77f0883dccc6154512e780029",
  "source": "pragma solidity ^0.4.23;\r\n\r\ncontract DeliveryDroneControl {\r\n    /// @dev account of drone itself\r\n    address drone;\r\n    Status public status;\r\n    Delivery[] public requestQueue;\r\n\r\n    struct Delivery { \r\n        string from; \r\n        string to;\r\n    }\r\n\r\n    enum Status { Idle, Delivering, ToNextDelivery }\r\n    \r\n    /**\r\n     * event\r\n     */\r\n    event DeliveryRequested(string from, string to);\r\n\r\n    /**\r\n     * modifier\r\n     */\r\n    modifier onlyCalledByDrone() {\r\n        require(msg.sender == drone);\r\n        _;\r\n    }\r\n\r\n     /// @dev constructor, stores the address of the drone\r\n    function DeliveryDroneControl(address _drone) {\r\n         drone = _drone;\r\n    }\r\n\r\n     /// @notice request drone delivery from `from` to `to`\r\n    function requestDelivery(\r\n        string from, \r\n        string to) \r\n    {\r\n         /// construct the struct 'Delivery' and assign it to storage.\r\n         var queue = requestQueue;\r\n         queue[queue.length++] = Delivery(from, to);\r\n         DeliveryRequested(from , to);\r\n    }\r\n\r\n    /**\r\n     * @dev called by the drone to get the next location to fly to\r\n     */\r\n    function getNextLocation() onlyCalledByDrone returns (string) {\r\n        if (requestQueue.length == 0 ) return \"\";\r\n        // @todo this is not actually a queue\r\n        if(status == Status.Delivering) \r\n            return requestQueue[0].to;\r\n        else\r\n            return requestQueue[0].from;\r\n    }\r\n\r\n    function delivered() onlyCalledByDrone {\r\n        \r\n    }\r\n\r\n}",
  "sourcePath": "D:\\code\\blockchain\\truffle\\greeter\\contracts\\DeliveryDroneControl.sol",
  "compiler": {
    "name": "solc",
    "version": "0.4.24+commit.e67f0147.Emscripten.clang"
  },
  "schemaVersion": "2.0.1",
  "updatedAt": "2018-08-12T08:24:31.621Z"
}