{
  "contractName": "Greeter",
  "abi": [
    {
      "constant": false,
      "inputs": [],
      "name": "kill",
      "outputs": [],
      "payable": false,
      "stateMutability": "nonpayable",
      "type": "function"
    },
    {
      "constant": false,
      "inputs": [],
      "name": "mortal",
      "outputs": [],
      "payable": false,
      "stateMutability": "nonpayable",
      "type": "function"
    },
    {
      "constant": false,
      "inputs": [
        {
          "name": "_greeting",
          "type": "string"
        }
      ],
      "name": "greeter",
      "outputs": [],
      "payable": false,
      "stateMutability": "nonpayable",
      "type": "function"
    },
    {
      "constant": true,
      "inputs": [],
      "name": "greet",
      "outputs": [
        {
          "name": "",
          "type": "string"
        }
      ],
      "payable": false,
      "stateMutability": "view",
      "type": "function"
    }
  ],
  "bytecode": "0x608060405234801561001057600080fd5b506103ee806100206000396000f300608060405260043610610062576000357c0100000000000000000000000000000000000000000000000000000000900463ffffffff16806341c0e1b514610067578063cfae32171461007e578063f1eae25c1461010e578063faf27bca14610125575b600080fd5b34801561007357600080fd5b5061007c61018e565b005b34801561008a57600080fd5b5061009361021f565b6040518080602001828103825283818151815260200191508051906020019080838360005b838110156100d35780820151818401526020810190506100b8565b50505050905090810190601f1680156101005780820380516001836020036101000a031916815260200191505b509250505060405180910390f35b34801561011a57600080fd5b506101236102c1565b005b34801561013157600080fd5b5061018c600480360381019080803590602001908201803590602001908080601f0160208091040260200160405190810160405280939291908181526020018383808284378201915050505050509192919290505050610303565b005b6000809054906101000a900473ffffffffffffffffffffffffffffffffffffffff1673ffffffffffffffffffffffffffffffffffffffff163373ffffffffffffffffffffffffffffffffffffffff16141561021d576000809054906101000a900473ffffffffffffffffffffffffffffffffffffffff1673ffffffffffffffffffffffffffffffffffffffff16ff5b565b606060018054600181600116156101000203166002900480601f0160208091040260200160405190810160405280929190818152602001828054600181600116156101000203166002900480156102b75780601f1061028c576101008083540402835291602001916102b7565b820191906000526020600020905b81548152906001019060200180831161029a57829003601f168201915b5050505050905090565b336000806101000a81548173ffffffffffffffffffffffffffffffffffffffff021916908373ffffffffffffffffffffffffffffffffffffffff160217905550565b806001908051906020019061031992919061031d565b5050565b828054600181600116156101000203166002900490600052602060002090601f016020900481019282601f1061035e57805160ff191683800117855561038c565b8280016001018555821561038c579182015b8281111561038b578251825591602001919060010190610370565b5b509050610399919061039d565b5090565b6103bf91905b808211156103bb5760008160009055506001016103a3565b5090565b905600a165627a7a72305820c3e4f35dd4035c08d15461e1a71bec13957a94f239bf7944fcb24d0f84a9d3ca0029",
  "source": "pragma solidity ^0.4.23;\r\n\r\ncontract Mortal {\r\n    /* Define variable owner of the type address*/\r\n    address owner;\r\n\r\n    /* this function is executed at initialization and sets the owner of the contract */\r\n    function mortal() public { \r\n        owner = msg.sender; \r\n    }\r\n    /* Function to recover the funds on the contract */\r\n\r\n    function kill() public { \r\n        if (msg.sender == owner) {\r\n            selfdestruct(owner); \r\n        }\r\n    }\r\n}\r\n\r\ncontract Greeter is Mortal {\r\n    /* define variable greeting of the type string */\r\n    string greeting;\r\n\r\n    /* this runs when the contract is executed */\r\n    function greeter(string _greeting) public {\r\n        greeting = _greeting;\r\n    }\r\n\r\n    /* main function */\r\n    function greet() view public returns (string) {\r\n        return greeting;\r\n    }\r\n}",
  "sourcePath": "D:\\code\\blockchain\\truffle\\greeter\\contracts\\Greeter.sol",
  "compiler": {
    "name": "solc",
    "version": "0.4.24+commit.e67f0147.Emscripten.clang"
  },
  "schemaVersion": "2.0.1",
  "updatedAt": "2018-08-08T15:34:57.096Z"
}