{
  "contractName": "InfoManager",
  "abi": [
    {
      "inputs": [
        {
          "name": "dataStore",
          "type": "address"
        }
      ],
      "payable": false,
      "stateMutability": "nonpayable",
      "type": "constructor"
    },
    {
      "constant": false,
      "inputs": [
        {
          "name": "key",
          "type": "string"
        },
        {
          "name": "value",
          "type": "string"
        }
      ],
      "name": "addData",
      "outputs": [
        {
          "name": "success",
          "type": "bool"
        }
      ],
      "payable": false,
      "stateMutability": "nonpayable",
      "type": "function"
    }
  ],
  "bytecode": "0x608060405234801561001057600080fd5b5060405160208061035783398101806040528101908080519060200190929190505050806000806101000a81548173ffffffffffffffffffffffffffffffffffffffff021916908373ffffffffffffffffffffffffffffffffffffffff160217905550506102d4806100836000396000f300608060405260043610610041576000357c0100000000000000000000000000000000000000000000000000000000900463ffffffff168063528407e514610046575b600080fd5b34801561005257600080fd5b506100f3600480360381019080803590602001908201803590602001908080601f0160208091040260200160405190810160405280939291908181526020018383808284378201915050505050509192919290803590602001908201803590602001908080601f016020809104026020016040519081016040528093929190818152602001838380828437820191505050505050919291929050505061010d565b604051808215151515815260200191505060405180910390f35b600060015462015180420311151561012457600080fd5b6000809054906101000a900473ffffffffffffffffffffffffffffffffffffffff1673ffffffffffffffffffffffffffffffffffffffff1663528407e584846040518363ffffffff167c0100000000000000000000000000000000000000000000000000000000028152600401808060200180602001838103835285818151815260200191508051906020019080838360005b838110156101d25780820151818401526020810190506101b7565b50505050905090810190601f1680156101ff5780820380516001836020036101000a031916815260200191505b50838103825284818151815260200191508051906020019080838360005b8381101561023857808201518184015260208101905061021d565b50505050905090810190601f1680156102655780820380516001836020036101000a031916815260200191505b50945050505050600060405180830381600087803b15801561028657600080fd5b505af115801561029a573d6000803e3d6000fd5b5050505060019050929150505600a165627a7a7230582038df92fb6128ff09aeecbc8877eb80ac9205e1a93083b2e810c50d9a0da67be80029",
  "source": "pragma solidity ^0.4.21;\r\n\r\nimport \"./Storage.sol\";\r\n\r\n\r\ncontract InfoManager {\r\n\r\n    Storage private _dataStore;\r\n\r\n    uint private _lastAdded;\r\n\r\n    function InfoManager(Storage dataStore) public {\r\n        _dataStore = dataStore;\r\n    }\r\n\r\n    function addData(string key, string value) public returns (bool success) {\r\n        require((now - 1 days) > _lastAdded);\r\n        _dataStore.addData(key, value);\r\n        return true;\r\n    }\r\n\r\n}",
  "sourcePath": "D:\\code\\blockchain\\truffle\\greeter\\contracts\\InfoManager.sol",
  "compiler": {
    "name": "solc",
    "version": "0.4.24+commit.e67f0147.Emscripten.clang"
  },
  "schemaVersion": "2.0.1",
  "updatedAt": "2018-08-12T08:24:31.625Z"
}