{
  "contractName": "ProofOfExistence1",
  "abi": [
    {
      "constant": true,
      "inputs": [],
      "name": "proof",
      "outputs": [
        {
          "name": "",
          "type": "bytes32"
        }
      ],
      "payable": false,
      "stateMutability": "view",
      "type": "function"
    },
    {
      "constant": false,
      "inputs": [
        {
          "name": "document",
          "type": "string"
        }
      ],
      "name": "notarize",
      "outputs": [],
      "payable": false,
      "stateMutability": "nonpayable",
      "type": "function"
    },
    {
      "constant": true,
      "inputs": [
        {
          "name": "document",
          "type": "string"
        }
      ],
      "name": "proofFor",
      "outputs": [
        {
          "name": "",
          "type": "bytes32"
        }
      ],
      "payable": false,
      "stateMutability": "view",
      "type": "function"
    }
  ],
  "bytecode": "0x608060405234801561001057600080fd5b50610270806100206000396000f300608060405260043610610057576000357c0100000000000000000000000000000000000000000000000000000000900463ffffffff1680637183616c1461005c578063f6c1acdf146100c5578063faf924cf1461014a575b600080fd5b34801561006857600080fd5b506100c3600480360381019080803590602001908201803590602001908080601f016020809104026020016040519081016040528093929190818152602001838380828437820191505050505050919291929050505061017d565b005b3480156100d157600080fd5b5061012c600480360381019080803590602001908201803590602001908080601f0160208091040260200160405190810160405280939291908181526020018383808284378201915050505050509192919290505050610193565b60405180826000191660001916815260200191505060405180910390f35b34801561015657600080fd5b5061015f61023e565b60405180826000191660001916815260200191505060405180910390f35b61018681610193565b6000816000191690555050565b60006002826040518082805190602001908083835b6020831015156101cd57805182526020820191506020810190506020830392506101a8565b6001836020036101000a0380198251168184511680821785525050505050509050019150506020604051808303816000865af1158015610211573d6000803e3d6000fd5b5050506040513d602081101561022657600080fd5b81019080805190602001909291905050509050919050565b600054815600a165627a7a72305820a28e73a9e1063f4cd0894fcd1ea33e29d7ebca29ce37d1448f2c31364660abf30029",
  "source": "/**\r\n * Proof of existence smart contract version 1\r\n * create a digital notary that stores hashes of documents as proofs of their existence\r\n */\r\n\r\npragma solidity ^0.4.23;\r\ncontract ProofOfExistence1 {    \r\n    // state\r\n    bytes32 public proof;\r\n    // caculate and store the proof for a document\r\n    /** \r\n     * transactional function\r\n     */\r\n    function notarize(string document) public {\r\n        proof = proofFor(document);\r\n    }\r\n\r\n    //helper function to get a document's sha256\r\n    /**\r\n     * read only function\r\n     */\r\n    function proofFor(string document) constant returns (bytes32) {\r\n        return sha256(document);\r\n    }\r\n}\r\n",
  "sourcePath": "D:\\code\\blockchain\\truffle\\greeter\\contracts\\ProofOfExistencel.sol",
  "compiler": {
    "name": "solc",
    "version": "0.4.24+commit.e67f0147.Emscripten.clang"
  },
  "schemaVersion": "2.0.1",
  "updatedAt": "2018-08-15T02:27:25.295Z"
}