{
  "contractName": "ProofOfExistencel2",
  "abi": [
    {
      "constant": false,
      "inputs": [
        {
          "name": "proof",
          "type": "bytes32"
        }
      ],
      "name": "storeProof",
      "outputs": [],
      "payable": false,
      "stateMutability": "nonpayable",
      "type": "function"
    },
    {
      "constant": false,
      "inputs": [
        {
          "name": "document",
          "type": "string"
        }
      ],
      "name": "notarize",
      "outputs": [],
      "payable": false,
      "stateMutability": "nonpayable",
      "type": "function"
    },
    {
      "constant": true,
      "inputs": [
        {
          "name": "document",
          "type": "string"
        }
      ],
      "name": "proofFor",
      "outputs": [
        {
          "name": "",
          "type": "bytes32"
        }
      ],
      "payable": false,
      "stateMutability": "view",
      "type": "function"
    },
    {
      "constant": true,
      "inputs": [
        {
          "name": "document",
          "type": "string"
        }
      ],
      "name": "checkDocument",
      "outputs": [
        {
          "name": "",
          "type": "bool"
        }
      ],
      "payable": false,
      "stateMutability": "view",
      "type": "function"
    },
    {
      "constant": true,
      "inputs": [
        {
          "name": "proof",
          "type": "bytes32"
        }
      ],
      "name": "hasProof",
      "outputs": [
        {
          "name": "",
          "type": "bool"
        }
      ],
      "payable": false,
      "stateMutability": "view",
      "type": "function"
    }
  ],
  "bytecode": "0x608060405234801561001057600080fd5b506103ff806100206000396000f30060806040526004361061006d576000357c0100000000000000000000000000000000000000000000000000000000900463ffffffff16806353fb9233146100725780637183616c146100f35780638952877b1461015c578063e3d1e6d61461018d578063f6c1acdf146101d6575b600080fd5b34801561007e57600080fd5b506100d9600480360381019080803590602001908201803590602001908080601f016020809104026020016040519081016040528093929190818152602001838380828437820191505050505050919291929050505061025b565b604051808215151515815260200191505060405180910390f35b3480156100ff57600080fd5b5061015a600480360381019080803590602001908201803590602001908080601f016020809104026020016040519081016040528093929190818152602001838380828437820191505050505050919291929050505061027a565b005b34801561016857600080fd5b5061018b6004803603810190808035600019169060200190929190505050610294565b005b34801561019957600080fd5b506101bc60048036038101908080356000191690602001909291905050506102c9565b604051808215151515815260200191505060405180910390f35b3480156101e257600080fd5b5061023d600480360381019080803590602001908201803590602001908080601f0160208091040260200160405190810160405280939291908181526020018383808284378201915050505050509192919290505050610328565b60405180826000191660001916815260200191505060405180910390f35b60008061026783610328565b9050610272816102c9565b915050919050565b600061028582610328565b905061029081610294565b5050565b600081908060018154018082558091505090600182039060005260206000200160009091929091909150906000191690555050565b600080600090505b60008054905081101561031d5782600019166000828154811015156102f257fe5b90600052602060002001546000191614156103105760019150610322565b80806001019150506102d1565b600091505b50919050565b60006002826040518082805190602001908083835b602083101515610362578051825260208201915060208101905060208303925061033d565b6001836020036101000a0380198251168184511680821785525050505050509050019150506020604051808303816000865af11580156103a6573d6000803e3d6000fd5b5050506040513d60208110156103bb57600080fd5b810190808051906020019092919050505090509190505600a165627a7a723058209d742e1b0b5b586eae6ffbf392daffa15c910af08cd00bdf6d9c23f9b3e735ed0029",
  "source": "pragma solidity ^0.4.23;\r\n\r\n// Proof of existence contract, version 2\r\ncontract ProofOfExistencel2 {\r\n    // state \r\n    bytes32[] private proofs;\r\n    // store a proof of existence in the contract state\r\n    /** transactional function */\r\n    function storeProof(bytes32 proof) public {\r\n        proofs.push(proof);\r\n    }\r\n\r\n    /** caculate and store the proof for a document\r\n     * transactional function\r\n     */\r\n     function notarize(string document) public {\r\n         bytes32 proof = proofFor(document);\r\n         storeProof(proof);\r\n     }\r\n\r\n    /** helper function to get a document's sha256 */\r\n    /** read only function */\r\n    function proofFor(string document) constant returns (bytes32) {\r\n        return sha256(document);\r\n    }\r\n\r\n    /** check if a document has been notarized */\r\n    /** read only function */\r\n    function checkDocument(string document) constant returns (bool) {\r\n        bytes32 proof = proofFor(document);\r\n        return hasProof(proof);\r\n    }\r\n\r\n    /** returns true if proof is stored */\r\n    /** read-only function */\r\n    function hasProof(bytes32 proof) constant returns (bool) {\r\n        for (uint256 i = 0; i< proofs.length; i++) {\r\n            if (proofs[i] == proof) {\r\n                return true;\r\n            }\r\n        }\r\n        return false;\r\n    } \r\n}",
  "sourcePath": "D:\\code\\blockchain\\truffle\\greeter\\contracts\\ProofOfExistencel2.sol",
  "compiler": {
    "name": "solc",
    "version": "0.4.24+commit.e67f0147.Emscripten.clang"
  },
  "schemaVersion": "2.0.1",
  "updatedAt": "2018-08-15T14:43:27.902Z"
}