{
  "contractName": "Storage",
  "abi": [
    {
      "constant": false,
      "inputs": [
        {
          "name": "key",
          "type": "string"
        },
        {
          "name": "value",
          "type": "string"
        }
      ],
      "name": "addData",
      "outputs": [],
      "payable": false,
      "stateMutability": "nonpayable",
      "type": "function"
    },
    {
      "constant": false,
      "inputs": [
        {
          "name": "key",
          "type": "string"
        }
      ],
      "name": "removeData",
      "outputs": [
        {
          "name": "",
          "type": "string"
        }
      ],
      "payable": false,
      "stateMutability": "nonpayable",
      "type": "function"
    },
    {
      "constant": false,
      "inputs": [
        {
          "name": "key",
          "type": "string"
        },
        {
          "name": "newValue",
          "type": "string"
        }
      ],
      "name": "changeData",
      "outputs": [],
      "payable": false,
      "stateMutability": "nonpayable",
      "type": "function"
    }
  ],
  "bytecode": "0x608060405234801561001057600080fd5b506107f0806100206000396000f300608060405260043610610057576000357c0100000000000000000000000000000000000000000000000000000000900463ffffffff1680631ac772211461005c5780632de5374e1461013e578063528407e5146101ed575b600080fd5b34801561006857600080fd5b506100c3600480360381019080803590602001908201803590602001908080601f016020809104026020016040519081016040528093929190818152602001838380828437820191505050505050919291929050505061029c565b6040518080602001828103825283818151815260200191508051906020019080838360005b838110156101035780820151818401526020810190506100e8565b50505050905090810190601f1680156101305780820380516001836020036101000a031916815260200191505b509250505060405180910390f35b34801561014a57600080fd5b506101eb600480360381019080803590602001908201803590602001908080601f0160208091040260200160405190810160405280939291908181526020018383808284378201915050505050509192919290803590602001908201803590602001908080601f01602080910402602001604051908101604052809392919081815260200183838082843782019150505050505091929192905050506104b4565b005b3480156101f957600080fd5b5061029a600480360381019080803590602001908201803590602001908080601f0160208091040260200160405190810160405280939291908181526020018383808284378201915050505050509192919290803590602001908201803590602001908080601f01602080910402602001604051908101604052809392919081815260200183838082843782019150505050505091929192905050506105c6565b005b60606000806000846040518082805190602001908083835b6020831015156102d957805182526020820191506020810190506020830392506102b4565b6001836020036101000a03801982511681845116808217855250505050505090500191505090815260200160405180910390208054600181600116156101000203166002900490501415151561032e57600080fd5b6000836040518082805190602001908083835b6020831015156103665780518252602082019150602081019050602083039250610341565b6001836020036101000a038019825116818451168082178552505050505050905001915050908152602001604051809103902090506000836040518082805190602001908083835b6020831015156103d357805182526020820191506020810190506020830392506103ae565b6001836020036101000a0380198251168184511680821785525050505050509050019150509081526020016040518091039020600061041291906106d7565b808054600181600116156101000203166002900480601f0160208091040260200160405190810160405280929190818152602001828054600181600116156101000203166002900480156104a75780601f1061047c576101008083540402835291602001916104a7565b820191906000526020600020905b81548152906001019060200180831161048a57829003601f168201915b5050505050915050919050565b600080836040518082805190602001908083835b6020831015156104ed57805182526020820191506020810190506020830392506104c8565b6001836020036101000a03801982511681845116808217855250505050505090500191505090815260200160405180910390208054600181600116156101000203166002900490501415151561054257600080fd5b806000836040518082805190602001908083835b60208310151561057b5780518252602082019150602081019050602083039250610556565b6001836020036101000a038019825116818451168082178552505050505050905001915050908152602001604051809103902090805190602001906105c192919061071f565b505050565b600080836040518082805190602001908083835b6020831015156105ff57805182526020820191506020810190506020830392506105da565b6001836020036101000a038019825116818451168082178552505050505050905001915050908152602001604051809103902080546001816001161561010002031660029004905014151561065357600080fd5b806000836040518082805190602001908083835b60208310151561068c5780518252602082019150602081019050602083039250610667565b6001836020036101000a038019825116818451168082178552505050505050905001915050908152602001604051809103902090805190602001906106d292919061071f565b505050565b50805460018160011615610100020316600290046000825580601f106106fd575061071c565b601f01602090049060005260206000209081019061071b919061079f565b5b50565b828054600181600116156101000203166002900490600052602060002090601f016020900481019282601f1061076057805160ff191683800117855561078e565b8280016001018555821561078e579182015b8281111561078d578251825591602001919060010190610772565b5b50905061079b919061079f565b5090565b6107c191905b808211156107bd5760008160009055506001016107a5565b5090565b905600a165627a7a7230582093b26b8f2b9b842e37cf577d49cd1fa999576a31eae7c2672728067a605c8e0b0029",
  "source": "pragma solidity ^0.4.21;\r\n\r\n\r\ncontract Storage {\r\n\r\n    mapping (string => string) private _store;\r\n\r\n    function addData(string key, string value) public {\r\n        require(bytes(_store[key]).length == 0);\r\n        _store[key] = value;\r\n    }\r\n\r\n    function removeData(string key) public returns (string) {\r\n        require(bytes(_store[key]).length != 0);\r\n        string prev = _store[key];\r\n        delete _store[key];\r\n        return prev;\r\n    }\r\n\r\n    function changeData(string key, string newValue) public {\r\n        require(bytes(_store[key]).length != 0);\r\n        _store[key] = newValue;\r\n    }\r\n\r\n}",
  "sourcePath": "D:\\code\\blockchain\\truffle\\greeter\\contracts\\Storage.sol",
  "compiler": {
    "name": "solc",
    "version": "0.4.24+commit.e67f0147.Emscripten.clang"
  },
  "schemaVersion": "2.0.1",
  "updatedAt": "2018-08-12T08:24:31.623Z"
}