{
  "contractName": "Token",
  "abi": [
    {
      "constant": true,
      "inputs": [
        {
          "name": "",
          "type": "address"
        }
      ],
      "name": "coinBalanceOf",
      "outputs": [
        {
          "name": "",
          "type": "uint256"
        }
      ],
      "payable": false,
      "stateMutability": "view",
      "type": "function"
    },
    {
      "anonymous": false,
      "inputs": [
        {
          "indexed": false,
          "name": "sender",
          "type": "address"
        },
        {
          "indexed": false,
          "name": "receiver",
          "type": "address"
        },
        {
          "indexed": false,
          "name": "amount",
          "type": "uint256"
        }
      ],
      "name": "CoinTransfer",
      "type": "event"
    },
    {
      "constant": false,
      "inputs": [
        {
          "name": "supply",
          "type": "uint256"
        }
      ],
      "name": "token",
      "outputs": [],
      "payable": false,
      "stateMutability": "nonpayable",
      "type": "function"
    },
    {
      "constant": false,
      "inputs": [
        {
          "name": "receiver",
          "type": "address"
        },
        {
          "name": "amount",
          "type": "uint256"
        }
      ],
      "name": "sendCoin",
      "outputs": [
        {
          "name": "sufficient",
          "type": "bool"
        }
      ],
      "payable": false,
      "stateMutability": "nonpayable",
      "type": "function"
    }
  ],
  "bytecode": "0x608060405234801561001057600080fd5b50610362806100206000396000f300608060405260043610610057576000357c0100000000000000000000000000000000000000000000000000000000900463ffffffff168063044215c61461005c57806390b98a1114610089578063bbd39ac0146100ee575b600080fd5b34801561006857600080fd5b5061008760048036038101908080359060200190929190505050610145565b005b34801561009557600080fd5b506100d4600480360381019080803573ffffffffffffffffffffffffffffffffffffffff1690602001909291908035906020019092919050505061018b565b604051808215151515815260200191505060405180910390f35b3480156100fa57600080fd5b5061012f600480360381019080803573ffffffffffffffffffffffffffffffffffffffff16906020019092919050505061031e565b6040518082815260200191505060405180910390f35b806000803373ffffffffffffffffffffffffffffffffffffffff1673ffffffffffffffffffffffffffffffffffffffff1681526020019081526020016000208190555050565b6000816000803373ffffffffffffffffffffffffffffffffffffffff1673ffffffffffffffffffffffffffffffffffffffff1681526020019081526020016000205410156101dc5760009050610318565b816000803373ffffffffffffffffffffffffffffffffffffffff1673ffffffffffffffffffffffffffffffffffffffff16815260200190815260200160002060008282540392505081905550816000808573ffffffffffffffffffffffffffffffffffffffff1673ffffffffffffffffffffffffffffffffffffffff168152602001908152602001600020600082825401925050819055507f16cdf1707799c6655baac6e210f52b94b7cec08adcaf9ede7dfe8649da926146338484604051808473ffffffffffffffffffffffffffffffffffffffff1673ffffffffffffffffffffffffffffffffffffffff1681526020018373ffffffffffffffffffffffffffffffffffffffff1673ffffffffffffffffffffffffffffffffffffffff168152602001828152602001935050505060405180910390a1600190505b92915050565b600060205280600052604060002060009150905054815600a165627a7a7230582088b166fa8325b67818758b4a09d778bc36f5cf947968e7c0efaef11a26669df40029",
  "source": "pragma solidity ^0.4.23;\r\n\r\ncontract Token { \r\n    mapping (address => uint) public coinBalanceOf;\r\n    event CoinTransfer(address sender, address receiver, uint amount);\r\n\r\n  /* Initializes contract with initial supply tokens to the creator of the contract */\r\n  function token(uint supply) {\r\n        coinBalanceOf[msg.sender] = supply;\r\n    }\r\n\r\n  /* Very simple trade function */\r\n    function sendCoin(address receiver, uint amount) returns(bool sufficient) {\r\n        if (coinBalanceOf[msg.sender] < amount) {\r\n          return false;\r\n        }\r\n        coinBalanceOf[msg.sender] -= amount;\r\n        coinBalanceOf[receiver] += amount;\r\n        emit CoinTransfer(msg.sender, receiver, amount);\r\n        return true;\r\n    }\r\n}",
  "sourcePath": "D:\\code\\blockchain\\truffle\\greeter\\contracts\\Token.sol",
  "compiler": {
    "name": "solc",
    "version": "0.4.24+commit.e67f0147.Emscripten.clang"
  },
  "schemaVersion": "2.0.1",
  "updatedAt": "2018-08-12T02:48:05.981Z"
}